{
  "contractName": "main",
  "abi": [
    {
      "inputs": [],
      "stateMutability": "nonpayable",
      "type": "constructor"
    },
    {
      "inputs": [],
      "name": "contrato",
      "outputs": [
        {
          "internalType": "address",
          "name": "",
          "type": "address"
        }
      ],
      "stateMutability": "view",
      "type": "function"
    },
    {
      "inputs": [],
      "name": "owner",
      "outputs": [
        {
          "internalType": "address",
          "name": "",
          "type": "address"
        }
      ],
      "stateMutability": "view",
      "type": "function"
    },
    {
      "inputs": [],
      "name": "getOwner",
      "outputs": [
        {
          "internalType": "address",
          "name": "",
          "type": "address"
        }
      ],
      "stateMutability": "view",
      "type": "function"
    },
    {
      "inputs": [],
      "name": "getContract",
      "outputs": [
        {
          "internalType": "address",
          "name": "",
          "type": "address"
        }
      ],
      "stateMutability": "view",
      "type": "function"
    },
    {
      "inputs": [
        {
          "internalType": "address",
          "name": "_destinatario",
          "type": "address"
        },
        {
          "internalType": "uint256",
          "name": "_numTokens",
          "type": "uint256"
        }
      ],
      "name": "send_tokens",
      "outputs": [],
      "stateMutability": "payable",
      "type": "function"
    },
    {
      "inputs": [
        {
          "internalType": "uint256",
          "name": "_numTokens",
          "type": "uint256"
        }
      ],
      "name": "GeneraTokens",
      "outputs": [],
      "stateMutability": "nonpayable",
      "type": "function"
    },
    {
      "inputs": [
        {
          "internalType": "address",
          "name": "_direccion",
          "type": "address"
        }
      ],
      "name": "balance_direccion",
      "outputs": [
        {
          "internalType": "uint256",
          "name": "",
          "type": "uint256"
        }
      ],
      "stateMutability": "view",
      "type": "function"
    },
    {
      "inputs": [],
      "name": "balance_total",
      "outputs": [
        {
          "internalType": "uint256",
          "name": "",
          "type": "uint256"
        }
      ],
      "stateMutability": "view",
      "type": "function"
    }
  ],
  "bytecode": "0x608060405234801561001057600080fd5b506127106040516100209061010d565b61002a9190610129565b604051809103906000f080158015610046573d6000803e3d6000fd5b506000806101000a81548173ffffffffffffffffffffffffffffffffffffffff021916908373ffffffffffffffffffffffffffffffffffffffff16021790555033600160006101000a81548173ffffffffffffffffffffffffffffffffffffffff021916908373ffffffffffffffffffffffffffffffffffffffff16021790555030600260006101000a81548173ffffffffffffffffffffffffffffffffffffffff021916908373ffffffffffffffffffffffffffffffffffffffff160217905550610160565b610fb680610dcc83390190565b6101238161014e565b82525050565b600060208201905061013e600083018461011a565b92915050565b6000819050919050565b600061015982610144565b9050919050565b610c5d8061016f6000396000f3fe60806040526004361061007b5760003560e01c8063958f85bd1161004e578063958f85bd1461012a578063a787254714610155578063c473de2b14610171578063e1a01e67146101ae5761007b565b80631246f6e214610080578063531e9236146100a9578063893d20e8146100d45780638da5cb5b146100ff575b600080fd5b34801561008c57600080fd5b506100a760048036038101906100a2919061080b565b6101d9565b005b3480156100b557600080fd5b506100be6102f7565b6040516100cb9190610ab1565b60405180910390f35b3480156100e057600080fd5b506100e96103ca565b6040516100f691906109ed565b60405180910390f35b34801561010b57600080fd5b506101146103f4565b60405161012191906109ed565b60405180910390f35b34801561013657600080fd5b5061013f61041a565b60405161014c91906109ed565b60405180910390f35b61016f600480360381019061016a91906107a6565b610444565b005b34801561017d57600080fd5b506101986004803603810190610193919061077d565b610633565b6040516101a59190610ab1565b60405180910390f35b3480156101ba57600080fd5b506101c36106e6565b6040516101d091906109ed565b60405180910390f35b600160009054906101000a900473ffffffffffffffffffffffffffffffffffffffff1673ffffffffffffffffffffffffffffffffffffffff163373ffffffffffffffffffffffffffffffffffffffff1614610269576040517f08c379a000000000000000000000000000000000000000000000000000000000815260040161026090610a51565b60405180910390fd5b60008054906101000a900473ffffffffffffffffffffffffffffffffffffffff1673ffffffffffffffffffffffffffffffffffffffff16631d43cc98826040518263ffffffff1660e01b81526004016102c29190610ab1565b600060405180830381600087803b1580156102dc57600080fd5b505af11580156102f0573d6000803e3d6000fd5b5050505050565b60008060009054906101000a900473ffffffffffffffffffffffffffffffffffffffff1673ffffffffffffffffffffffffffffffffffffffff166370a08231600260009054906101000a900473ffffffffffffffffffffffffffffffffffffffff166040518263ffffffff1660e01b815260040161037591906109ed565b60206040518083038186803b15801561038d57600080fd5b505afa1580156103a1573d6000803e3d6000fd5b505050506040513d601f19601f820116820180604052508101906103c59190610834565b905090565b6000600160009054906101000a900473ffffffffffffffffffffffffffffffffffffffff16905090565b600160009054906101000a900473ffffffffffffffffffffffffffffffffffffffff1681565b6000600260009054906101000a900473ffffffffffffffffffffffffffffffffffffffff16905090565b600a811115610488576040517f08c379a000000000000000000000000000000000000000000000000000000000815260040161047f90610a31565b60405180910390fd5b60006104938261070c565b9050803410156104d8576040517f08c379a00000000000000000000000000000000000000000000000000000000081526004016104cf90610a71565b60405180910390fd5b600081346104e69190610b37565b90503373ffffffffffffffffffffffffffffffffffffffff166108fc829081150290604051600060405180830381858888f1935050505015801561052e573d6000803e3d6000fd5b5060006105396102f7565b90508084111561057e576040517f08c379a000000000000000000000000000000000000000000000000000000000815260040161057590610a91565b60405180910390fd5b60008054906101000a900473ffffffffffffffffffffffffffffffffffffffff1673ffffffffffffffffffffffffffffffffffffffff1663a9059cbb86866040518363ffffffff1660e01b81526004016105d9929190610a08565b602060405180830381600087803b1580156105f357600080fd5b505af1158015610607573d6000803e3d6000fd5b505050506040513d601f19601f8201168201806040525081019061062b91906107e2565b505050505050565b60008060009054906101000a900473ffffffffffffffffffffffffffffffffffffffff1673ffffffffffffffffffffffffffffffffffffffff166370a08231836040518263ffffffff1660e01b815260040161068f91906109ed565b60206040518083038186803b1580156106a757600080fd5b505afa1580156106bb573d6000803e3d6000fd5b505050506040513d601f19601f820116820180604052508101906106df9190610834565b9050919050565b600260009054906101000a900473ffffffffffffffffffffffffffffffffffffffff1681565b6000670de0b6b3a7640000826107229190610add565b9050919050565b60008135905061073881610be2565b92915050565b60008151905061074d81610bf9565b92915050565b60008135905061076281610c10565b92915050565b60008151905061077781610c10565b92915050565b60006020828403121561078f57600080fd5b600061079d84828501610729565b91505092915050565b600080604083850312156107b957600080fd5b60006107c785828601610729565b92505060206107d885828601610753565b9150509250929050565b6000602082840312156107f457600080fd5b60006108028482850161073e565b91505092915050565b60006020828403121561081d57600080fd5b600061082b84828501610753565b91505092915050565b60006020828403121561084657600080fd5b600061085484828501610768565b91505092915050565b61086681610b6b565b82525050565b6000610879603083610acc565b91507f4c612063616e746964616420646520746f6b656e732065786365646520656c2060008301527f6c696d69746520646520636f6d707261000000000000000000000000000000006020830152604082019050919050565b60006108df602d83610acc565b91507f4e6f207469656e6573207065726d69736f73207061726120656a65637574617260008301527f20657374612066756e63696f6e000000000000000000000000000000000000006020830152604082019050919050565b6000610945602783610acc565b91507f636f6d707261206d617320657468657273206f20636f6d707261206d656e6f7360008301527f20746f6b656e73000000000000000000000000000000000000000000000000006020830152604082019050919050565b60006109ab602083610acc565b91507f436f6d70726120756e206e756d65726f206d656e6f7220646520546f6b656e736000830152602082019050919050565b6109e781610ba9565b82525050565b6000602082019050610a02600083018461085d565b92915050565b6000604082019050610a1d600083018561085d565b610a2a60208301846109de565b9392505050565b60006020820190508181036000830152610a4a8161086c565b9050919050565b60006020820190508181036000830152610a6a816108d2565b9050919050565b60006020820190508181036000830152610a8a81610938565b9050919050565b60006020820190508181036000830152610aaa8161099e565b9050919050565b6000602082019050610ac660008301846109de565b92915050565b600082825260208201905092915050565b6000610ae882610ba9565b9150610af383610ba9565b9250817fffffffffffffffffffffffffffffffffffffffffffffffffffffffffffffffff0483118215151615610b2c57610b2b610bb3565b5b828202905092915050565b6000610b4282610ba9565b9150610b4d83610ba9565b925082821015610b6057610b5f610bb3565b5b828203905092915050565b6000610b7682610b89565b9050919050565b60008115159050919050565b600073ffffffffffffffffffffffffffffffffffffffff82169050919050565b6000819050919050565b7f4e487b7100000000000000000000000000000000000000000000000000000000600052601160045260246000fd5b610beb81610b6b565b8114610bf657600080fd5b50565b610c0281610b7d565b8114610c0d57600080fd5b50565b610c1981610ba9565b8114610c2457600080fd5b5056fea2646970667358221220b1f859652a454004d6e2f008042d6e7dae5191bd6c21a121a1a87f3b2f215d7764736f6c63430008000033608060405234801561001057600080fd5b50604051610fb6380380610fb683398181016040528101906100329190610099565b806002819055506002546000803373ffffffffffffffffffffffffffffffffffffffff1673ffffffffffffffffffffffffffffffffffffffff16815260200190815260200160002081905550506100e3565b600081519050610093816100cc565b92915050565b6000602082840312156100ab57600080fd5b60006100b984828501610084565b91505092915050565b6000819050919050565b6100d5816100c2565b81146100e057600080fd5b50565b610ec4806100f26000396000f3fe608060405234801561001057600080fd5b506004361061009e5760003560e01c8063313ce56711610066578063313ce5671461015b57806370a082311461017957806395d89b41146101a9578063a9059cbb146101c7578063dd62ed3e146101f75761009e565b806306fdde03146100a3578063095ea7b3146100c157806318160ddd146100f15780631d43cc981461010f57806323b872dd1461012b575b600080fd5b6100ab610227565b6040516100b89190610c9a565b60405180910390f35b6100db60048036038101906100d69190610bb4565b610260565b6040516100e89190610c7f565b60405180910390f35b6100f9610352565b6040516101069190610cbc565b60405180910390f35b61012960048036038101906101249190610bf0565b61035c565b005b61014560048036038101906101409190610b65565b6103cd565b6040516101529190610c7f565b60405180910390f35b610163610748565b6040516101709190610cd7565b60405180910390f35b610193600480360381019061018e9190610b00565b61074d565b6040516101a09190610cbc565b60405180910390f35b6101b1610795565b6040516101be9190610c9a565b60405180910390f35b6101e160048036038101906101dc9190610bb4565b6107ce565b6040516101ee9190610c7f565b60405180910390f35b610211600480360381019061020c9190610b29565b6109b0565b60405161021e9190610cbc565b60405180910390f35b6040518060400160405280600681526020017f43616d706f6f000000000000000000000000000000000000000000000000000081525081565b600081600160003373ffffffffffffffffffffffffffffffffffffffff1673ffffffffffffffffffffffffffffffffffffffff16815260200190815260200160002060008573ffffffffffffffffffffffffffffffffffffffff1673ffffffffffffffffffffffffffffffffffffffff168152602001908152602001600020819055508273ffffffffffffffffffffffffffffffffffffffff163373ffffffffffffffffffffffffffffffffffffffff167f8c5be1e5ebec7d5bd14f71427d1e84f3dd0314c0f7b2291e5b200ac8c7c3b925846040516103409190610cbc565b60405180910390a36001905092915050565b6000600254905090565b806002600082825461036e9190610d0e565b92505081905550806000803373ffffffffffffffffffffffffffffffffffffffff1673ffffffffffffffffffffffffffffffffffffffff16815260200190815260200160002060008282546103c39190610d0e565b9250508190555050565b60008060008573ffffffffffffffffffffffffffffffffffffffff1673ffffffffffffffffffffffffffffffffffffffff1681526020019081526020016000205482111561041a57600080fd5b600160008573ffffffffffffffffffffffffffffffffffffffff1673ffffffffffffffffffffffffffffffffffffffff16815260200190815260200160002060003373ffffffffffffffffffffffffffffffffffffffff1673ffffffffffffffffffffffffffffffffffffffff168152602001908152602001600020548211156104a357600080fd5b6104f4826000808773ffffffffffffffffffffffffffffffffffffffff1673ffffffffffffffffffffffffffffffffffffffff16815260200190815260200160002054610a3790919063ffffffff16565b6000808673ffffffffffffffffffffffffffffffffffffffff1673ffffffffffffffffffffffffffffffffffffffff168152602001908152602001600020819055506105c582600160008773ffffffffffffffffffffffffffffffffffffffff1673ffffffffffffffffffffffffffffffffffffffff16815260200190815260200160002060003373ffffffffffffffffffffffffffffffffffffffff1673ffffffffffffffffffffffffffffffffffffffff16815260200190815260200160002054610a3790919063ffffffff16565b600160008673ffffffffffffffffffffffffffffffffffffffff1673ffffffffffffffffffffffffffffffffffffffff16815260200190815260200160002060003373ffffffffffffffffffffffffffffffffffffffff1673ffffffffffffffffffffffffffffffffffffffff16815260200190815260200160002081905550610696826000808673ffffffffffffffffffffffffffffffffffffffff1673ffffffffffffffffffffffffffffffffffffffff16815260200190815260200160002054610a8490919063ffffffff16565b6000808573ffffffffffffffffffffffffffffffffffffffff1673ffffffffffffffffffffffffffffffffffffffff168152602001908152602001600020819055508273ffffffffffffffffffffffffffffffffffffffff168473ffffffffffffffffffffffffffffffffffffffff167fddf252ad1be2c89b69c2b068fc378daa952ba7f163c4a11628f55a4df523b3ef846040516107359190610cbc565b60405180910390a3600190509392505050565b601281565b60008060008373ffffffffffffffffffffffffffffffffffffffff1673ffffffffffffffffffffffffffffffffffffffff168152602001908152602001600020549050919050565b6040518060400160405280600381526020017f4a4f53000000000000000000000000000000000000000000000000000000000081525081565b60008060003373ffffffffffffffffffffffffffffffffffffffff1673ffffffffffffffffffffffffffffffffffffffff1681526020019081526020016000205482111561081b57600080fd5b61086c826000803373ffffffffffffffffffffffffffffffffffffffff1673ffffffffffffffffffffffffffffffffffffffff16815260200190815260200160002054610a3790919063ffffffff16565b6000803373ffffffffffffffffffffffffffffffffffffffff1673ffffffffffffffffffffffffffffffffffffffff168152602001908152602001600020819055506108ff826000808673ffffffffffffffffffffffffffffffffffffffff1673ffffffffffffffffffffffffffffffffffffffff16815260200190815260200160002054610a8490919063ffffffff16565b6000808573ffffffffffffffffffffffffffffffffffffffff1673ffffffffffffffffffffffffffffffffffffffff168152602001908152602001600020819055508273ffffffffffffffffffffffffffffffffffffffff163373ffffffffffffffffffffffffffffffffffffffff167fddf252ad1be2c89b69c2b068fc378daa952ba7f163c4a11628f55a4df523b3ef8460405161099e9190610cbc565b60405180910390a36001905092915050565b6000600160008473ffffffffffffffffffffffffffffffffffffffff1673ffffffffffffffffffffffffffffffffffffffff16815260200190815260200160002060008373ffffffffffffffffffffffffffffffffffffffff1673ffffffffffffffffffffffffffffffffffffffff16815260200190815260200160002054905092915050565b600082821115610a70577f4e487b7100000000000000000000000000000000000000000000000000000000600052600160045260246000fd5b8183610a7c9190610d64565b905092915050565b6000808284610a939190610d0e565b905083811015610acc577f4e487b7100000000000000000000000000000000000000000000000000000000600052600160045260246000fd5b8091505092915050565b600081359050610ae581610e60565b92915050565b600081359050610afa81610e77565b92915050565b600060208284031215610b1257600080fd5b6000610b2084828501610ad6565b91505092915050565b60008060408385031215610b3c57600080fd5b6000610b4a85828601610ad6565b9250506020610b5b85828601610ad6565b9150509250929050565b600080600060608486031215610b7a57600080fd5b6000610b8886828701610ad6565b9350506020610b9986828701610ad6565b9250506040610baa86828701610aeb565b9150509250925092565b60008060408385031215610bc757600080fd5b6000610bd585828601610ad6565b9250506020610be685828601610aeb565b9150509250929050565b600060208284031215610c0257600080fd5b6000610c1084828501610aeb565b91505092915050565b610c2281610daa565b82525050565b6000610c3382610cf2565b610c3d8185610cfd565b9350610c4d818560208601610ded565b610c5681610e4f565b840191505092915050565b610c6a81610dd6565b82525050565b610c7981610de0565b82525050565b6000602082019050610c946000830184610c19565b92915050565b60006020820190508181036000830152610cb48184610c28565b905092915050565b6000602082019050610cd16000830184610c61565b92915050565b6000602082019050610cec6000830184610c70565b92915050565b600081519050919050565b600082825260208201905092915050565b6000610d1982610dd6565b9150610d2483610dd6565b9250827fffffffffffffffffffffffffffffffffffffffffffffffffffffffffffffffff03821115610d5957610d58610e20565b5b828201905092915050565b6000610d6f82610dd6565b9150610d7a83610dd6565b925082821015610d8d57610d8c610e20565b5b828203905092915050565b6000610da382610db6565b9050919050565b60008115159050919050565b600073ffffffffffffffffffffffffffffffffffffffff82169050919050565b6000819050919050565b600060ff82169050919050565b60005b83811015610e0b578082015181840152602081019050610df0565b83811115610e1a576000848401525b50505050565b7f4e487b7100000000000000000000000000000000000000000000000000000000600052601160045260246000fd5b6000601f19601f8301169050919050565b610e6981610d98565b8114610e7457600080fd5b50565b610e8081610dd6565b8114610e8b57600080fd5b5056fea264697066735822122002b4f9f46a132e21b7df76ac892cae2ce0217628d33db64cb0c6d40bb944c97d64736f6c63430008000033",
  "immutableReferences": {},
  "source": "// SPDX-License-Identifier: MIT\r\npragma solidity ^0.8.0;\r\nimport \"./Token_jose.sol\";\r\n\r\ncontract main {\r\n\r\n    //Instancia del contrato token\r\n    ERC20Basic private token;\r\n\r\n    //Owner del contrato\r\n    address public owner;\r\n\r\n    //Direccion del Smart Contract\r\n    address public contrato;\r\n\r\n    //Constructor\r\n    constructor () {\r\n        token = new ERC20Basic(10000);\r\n        owner = msg.sender;\r\n        contrato = address(this);\r\n    }\r\n     \r\n     //Obtenemos la direccin del owner\r\n    function getOwner() public view returns (address) {\r\n        return owner;\r\n\r\n    }\r\n\r\n    //Establecer el precio de un token\r\n    function PrecioTokens(uint _numTokens) internal pure returns (uint) {\r\n     return _numTokens*(1 ether);\r\n    }\r\n\r\n     // Obtenemos la direccion del Smart Contract\r\n    function getContract() public view returns (address) {\r\n        return contrato;\r\n\r\n    }\r\n     \r\n     //Compramos tokens mediante : direccion de destino y cantidad\r\n     function send_tokens (address _destinatario, uint _numTokens) public payable {\r\n         //Filtrar el numero de tokens a comprar por address\r\n         require (_numTokens <= 10, \"La cantidad de tokens excede el limite de compra\");\r\n         //Establecer el precio de los tokens\r\n         uint coste = PrecioTokens(_numTokens);\r\n         //Evaluamos la cantidad de tokens que quiere  comprar el cliente\r\n         require(msg.value >= coste, \"compra mas ethers o compra menos tokens\");\r\n         //Diferencia de lo que el cliente paga\r\n         uint returnValue = msg.value - coste;\r\n         //Devuelve la cantidad de compra determinada payable(msg.sender) en versin ^0.8.0\r\n         payable(msg.sender).transfer(returnValue);\r\n         //Balance de tokens disponibles para comprar\r\n         uint Balance = balance_total();\r\n         require(_numTokens <= Balance, \"Compra un numero menor de Tokens\");\r\n         //Transferencia de los tokens al destinatario\r\n         token.transfer(_destinatario, _numTokens);\r\n      \r\n     }\r\n\r\n     //Generar ms tokens al contrato\r\n     function GeneraTokens(uint _numTokens) public onlybyOwner(){\r\n         token.increaseTotalSupply(_numTokens);\r\n     } \r\n\r\n     //Modificador que permita la ejecucion solo del owner\r\n     modifier onlybyOwner() {\r\n         require(msg.sender == owner, \"No tienes permisos para ejecutar esta funcion\");\r\n       _;\r\n     }\r\n\r\n\r\n     //Obtenemos el balance de tokens de una direccion\r\n     function balance_direccion(address _direccion) public view returns (uint){\r\n         return token.balanceOf(_direccion);\r\n     \r\n     }\r\n\r\n     //Obtenemos el balance de tokens del Smart Contract\r\n     function balance_total() public view returns (uint) {\r\n         return token.balanceOf(contrato);\r\n         \r\n     }\r\n}\r\n\r\n",
  "sourcePath": "C:\\Users\\inves\\Dapp Token\\src\\contracts\\Main.sol",
  "compiler": {
    "name": "solc",
    "version": "0.8.0+commit.c7dfd78e.Emscripten.clang"
  },
  "schemaVersion": "3.4.6",
  "updatedAt": "2022-05-03T15:13:35.992Z",
  "devdoc": {
    "kind": "dev",
    "methods": {},
    "version": 1
  },
  "userdoc": {
    "kind": "user",
    "methods": {},
    "version": 1
  }
}